{
  "contractName": "BitBets",
  "abi": [
    {
      "constant": true,
      "inputs": [
        {
          "name": "",
          "type": "uint256"
        },
        {
          "name": "",
          "type": "address"
        }
      ],
      "name": "userWithdrawn",
      "outputs": [
        {
          "name": "",
          "type": "bool"
        }
      ],
      "payable": false,
      "stateMutability": "view",
      "type": "function"
    },
    {
      "constant": true,
      "inputs": [
        {
          "name": "",
          "type": "uint256"
        },
        {
          "name": "",
          "type": "address"
        }
      ],
      "name": "userRecovered",
      "outputs": [
        {
          "name": "",
          "type": "bool"
        }
      ],
      "payable": false,
      "stateMutability": "view",
      "type": "function"
    },
    {
      "constant": true,
      "inputs": [
        {
          "name": "",
          "type": "uint256"
        }
      ],
      "name": "bets",
      "outputs": [
        {
          "name": "terms",
          "type": "string"
        },
        {
          "name": "amount",
          "type": "uint256"
        },
        {
          "name": "options",
          "type": "string"
        },
        {
          "name": "oracle",
          "type": "address"
        },
        {
          "name": "outcome",
          "type": "uint256"
        },
        {
          "name": "totalPool",
          "type": "uint256"
        },
        {
          "name": "paymentToken",
          "type": "address"
        },
        {
          "name": "invalid",
          "type": "bool"
        },
        {
          "name": "betsPlaced",
          "type": "uint256"
        }
      ],
      "payable": false,
      "stateMutability": "view",
      "type": "function"
    },
    {
      "constant": true,
      "inputs": [
        {
          "name": "",
          "type": "uint256"
        },
        {
          "name": "",
          "type": "address"
        }
      ],
      "name": "userBets",
      "outputs": [
        {
          "name": "",
          "type": "uint256"
        }
      ],
      "payable": false,
      "stateMutability": "view",
      "type": "function"
    },
    {
      "constant": true,
      "inputs": [
        {
          "name": "",
          "type": "uint256"
        },
        {
          "name": "",
          "type": "uint256"
        }
      ],
      "name": "choiceBets",
      "outputs": [
        {
          "name": "",
          "type": "uint256"
        }
      ],
      "payable": false,
      "stateMutability": "view",
      "type": "function"
    },
    {
      "constant": false,
      "inputs": [
        {
          "name": "terms",
          "type": "string"
        },
        {
          "name": "amount",
          "type": "uint256"
        },
        {
          "name": "options",
          "type": "string"
        },
        {
          "name": "paymentToken",
          "type": "address"
        }
      ],
      "name": "createBet",
      "outputs": [],
      "payable": false,
      "stateMutability": "nonpayable",
      "type": "function"
    },
    {
      "constant": false,
      "inputs": [
        {
          "name": "betIndex",
          "type": "uint256"
        },
        {
          "name": "option",
          "type": "uint256"
        }
      ],
      "name": "placeBet",
      "outputs": [],
      "payable": true,
      "stateMutability": "payable",
      "type": "function"
    },
    {
      "constant": false,
      "inputs": [
        {
          "name": "betIndex",
          "type": "uint256"
        },
        {
          "name": "outcome",
          "type": "uint256"
        }
      ],
      "name": "resolveBet",
      "outputs": [],
      "payable": false,
      "stateMutability": "nonpayable",
      "type": "function"
    },
    {
      "constant": false,
      "inputs": [
        {
          "name": "betIndex",
          "type": "uint256"
        }
      ],
      "name": "invalidateBet",
      "outputs": [],
      "payable": false,
      "stateMutability": "nonpayable",
      "type": "function"
    },
    {
      "constant": false,
      "inputs": [
        {
          "name": "betIndex",
          "type": "uint256"
        }
      ],
      "name": "withdraw",
      "outputs": [],
      "payable": false,
      "stateMutability": "nonpayable",
      "type": "function"
    },
    {
      "constant": false,
      "inputs": [
        {
          "name": "betIndex",
          "type": "uint256"
        }
      ],
      "name": "recover",
      "outputs": [],
      "payable": false,
      "stateMutability": "nonpayable",
      "type": "function"
    }
  ],
  "bytecode": "0x608060405234801561001057600080fd5b50612944806100206000396000f3006080604052600436106100af576000357c0100000000000000000000000000000000000000000000000000000000900463ffffffff1680630ca35682146100b45780630ceb9550146100e1578063182e64b61461014657806322af00fa146101ab5780632e1a7d4d1461034a5780634afe62b5146103775780635cb5804a146103a15780637d06a8e1146103d8578063916bf85714610439578063b244e76314610484578063c58138b4146104b1575b600080fd5b3480156100c057600080fd5b506100df6004803603810190808035906020019092919050505061058a565b005b3480156100ed57600080fd5b5061012c60048036038101908080359060200190929190803573ffffffffffffffffffffffffffffffffffffffff169060200190929190505050610bd5565b604051808215151515815260200191505060405180910390f35b34801561015257600080fd5b5061019160048036038101908080359060200190929190803573ffffffffffffffffffffffffffffffffffffffff169060200190929190505050610c04565b604051808215151515815260200191505060405180910390f35b3480156101b757600080fd5b506101d660048036038101908080359060200190929190505050610c33565b60405180806020018a8152602001806020018973ffffffffffffffffffffffffffffffffffffffff1673ffffffffffffffffffffffffffffffffffffffff1681526020018881526020018781526020018673ffffffffffffffffffffffffffffffffffffffff1673ffffffffffffffffffffffffffffffffffffffff1681526020018515151515815260200184815260200183810383528c818151815260200191508051906020019080838360005b838110156102a0578082015181840152602081019050610285565b50505050905090810190601f1680156102cd5780820380516001836020036101000a031916815260200191505b5083810382528a818151815260200191508051906020019080838360005b838110156103065780820151818401526020810190506102eb565b50505050905090810190601f1680156103335780820380516001836020036101000a031916815260200191505b509b50505050505050505050505060405180910390f35b34801561035657600080fd5b5061037560048036038101908080359060200190929190505050610e0d565b005b61039f600480360381019080803590602001909291908035906020019092919050505061156c565b005b3480156103ad57600080fd5b506103d66004803603810190808035906020019092919080359060200190929190505050611db7565b005b3480156103e457600080fd5b5061042360048036038101908080359060200190929190803573ffffffffffffffffffffffffffffffffffffffff169060200190929190505050612207565b6040518082815260200191505060405180910390f35b34801561044557600080fd5b5061046e600480360381019080803590602001909291908035906020019092919050505061222c565b6040518082815260200191505060405180910390f35b34801561049057600080fd5b506104af60048036038101908080359060200190929190505050612251565b005b3480156104bd57600080fd5b50610588600480360381019080803590602001908201803590602001908080601f016020809104026020016040519081016040528093929190818152602001838380828437820191505050505050919291929080359060200190929190803590602001908201803590602001908080601f0160208091040260200160405190810160405280939291908181526020018383808284378201915050505050509192919290803573ffffffffffffffffffffffffffffffffffffffff16906020019092919050505061263e565b005b6105926127f8565b60006005838154811015156105a357fe5b90600052602060002090600802016101206040519081016040529081600082018054600181600116156101000203166002900480601f0160208091040260200160405190810160405280929190818152602001828054600181600116156101000203166002900480156106575780601f1061062c57610100808354040283529160200191610657565b820191906000526020600020905b81548152906001019060200180831161063a57829003601f168201915b5050505050815260200160018201548152602001600282018054600181600116156101000203166002900480601f0160208091040260200160405190810160405280929190818152602001828054600181600116156101000203166002900480156107035780601f106106d857610100808354040283529160200191610703565b820191906000526020600020905b8154815290600101906020018083116106e657829003601f168201915b505050505081526020016003820160009054906101000a900473ffffffffffffffffffffffffffffffffffffffff1673ffffffffffffffffffffffffffffffffffffffff1673ffffffffffffffffffffffffffffffffffffffff16815260200160048201548152602001600582015481526020016006820160009054906101000a900473ffffffffffffffffffffffffffffffffffffffff1673ffffffffffffffffffffffffffffffffffffffff1673ffffffffffffffffffffffffffffffffffffffff1681526020016006820160149054906101000a900460ff1615151515815260200160078201548152505091508160e00151151561086c576040517f08c379a00000000000000000000000000000000000000000000000000000000081526004018080602001828103825260128152602001807f426574206973206e6f7420696e76616c6964000000000000000000000000000081525060200191505060405180910390fd5b6000826080015114151561090e576040517f08c379a00000000000000000000000000000000000000000000000000000000081526004018080602001828103825260228152602001807f43616e6e6f74207265636f7665722066726f6d2061207265736f6c766564206281526020017f657400000000000000000000000000000000000000000000000000000000000081525060400191505060405180910390fd5b600015156003600085815260200190815260200160002060003373ffffffffffffffffffffffffffffffffffffffff1673ffffffffffffffffffffffffffffffffffffffff16815260200190815260200160002060009054906101000a900460ff1615151415156109e7576040517f08c379a00000000000000000000000000000000000000000000000000000000081526004018080602001828103825260188152602001807f596f7527766520616c7265616479207265636f7665726564000000000000000081525060200191505060405180910390fd5b60016003600085815260200190815260200160002060003373ffffffffffffffffffffffffffffffffffffffff1673ffffffffffffffffffffffffffffffffffffffff16815260200190815260200160002060006101000a81548160ff0219169083151502179055508161010001518260a00151811515610a6457fe5b049050600073ffffffffffffffffffffffffffffffffffffffff168260c0015173ffffffffffffffffffffffffffffffffffffffff161415610aec573373ffffffffffffffffffffffffffffffffffffffff166108fc829081150290604051600060405180830381858888f19350505050158015610ae6573d6000803e3d6000fd5b50610bd0565b8160c0015173ffffffffffffffffffffffffffffffffffffffff1663a9059cbb33836040518363ffffffff167c0100000000000000000000000000000000000000000000000000000000028152600401808373ffffffffffffffffffffffffffffffffffffffff1673ffffffffffffffffffffffffffffffffffffffff16815260200182815260200192505050602060405180830381600087803b158015610b9357600080fd5b505af1158015610ba7573d6000803e3d6000fd5b505050506040513d6020811015610bbd57600080fd5b8101908080519060200190929190505050505b505050565b60026020528160005260406000206020528060005260406000206000915091509054906101000a900460ff1681565b60036020528160005260406000206020528060005260406000206000915091509054906101000a900460ff1681565b600581815481101515610c4257fe5b9060005260206000209060080201600091509050806000018054600181600116156101000203166002900480601f016020809104026020016040519081016040528092919081815260200182805460018160011615610100020316600290048015610cee5780601f10610cc357610100808354040283529160200191610cee565b820191906000526020600020905b815481529060010190602001808311610cd157829003601f168201915b505050505090806001015490806002018054600181600116156101000203166002900480601f016020809104026020016040519081016040528092919081815260200182805460018160011615610100020316600290048015610d925780601f10610d6757610100808354040283529160200191610d92565b820191906000526020600020905b815481529060010190602001808311610d7557829003601f168201915b5050505050908060030160009054906101000a900473ffffffffffffffffffffffffffffffffffffffff16908060040154908060050154908060060160009054906101000a900473ffffffffffffffffffffffffffffffffffffffff16908060060160149054906101000a900460ff16908060070154905089565b610e156127f8565b6000600583815481101515610e2657fe5b90600052602060002090600802016101206040519081016040529081600082018054600181600116156101000203166002900480601f016020809104026020016040519081016040528092919081815260200182805460018160011615610100020316600290048015610eda5780601f10610eaf57610100808354040283529160200191610eda565b820191906000526020600020905b815481529060010190602001808311610ebd57829003601f168201915b5050505050815260200160018201548152602001600282018054600181600116156101000203166002900480601f016020809104026020016040519081016040528092919081815260200182805460018160011615610100020316600290048015610f865780601f10610f5b57610100808354040283529160200191610f86565b820191906000526020600020905b815481529060010190602001808311610f6957829003601f168201915b505050505081526020016003820160009054906101000a900473ffffffffffffffffffffffffffffffffffffffff1673ffffffffffffffffffffffffffffffffffffffff1673ffffffffffffffffffffffffffffffffffffffff16815260200160048201548152602001600582015481526020016006820160009054906101000a900473ffffffffffffffffffffffffffffffffffffffff1673ffffffffffffffffffffffffffffffffffffffff1673ffffffffffffffffffffffffffffffffffffffff1681526020016006820160149054906101000a900460ff161515151581526020016007820154815250509150600082608001511115156110f2576040517f08c379a00000000000000000000000000000000000000000000000000000000081526004018080602001828103825260138152602001807f426574206973206e6f74207265736f6c7665640000000000000000000000000081525060200191505060405180910390fd5b8160e00151151515611192576040517f08c379a00000000000000000000000000000000000000000000000000000000081526004018080602001828103825260238152602001807f43616e6e6f742077697468647261772066726f6d20616e20696e76616c69642081526020017f626574000000000000000000000000000000000000000000000000000000000081525060400191505060405180910390fd5b81608001516001600085815260200190815260200160002060003373ffffffffffffffffffffffffffffffffffffffff1673ffffffffffffffffffffffffffffffffffffffff16815260200190815260200160002054141515611283576040517f08c379a00000000000000000000000000000000000000000000000000000000081526004018080602001828103825260248152602001807f596f75206469646e27742073656c6563742074686520636f727265637420616e81526020017f737765720000000000000000000000000000000000000000000000000000000081525060400191505060405180910390fd5b600015156002600085815260200190815260200160002060003373ffffffffffffffffffffffffffffffffffffffff1673ffffffffffffffffffffffffffffffffffffffff16815260200190815260200160002060009054906101000a900460ff16151514151561135c576040517f08c379a00000000000000000000000000000000000000000000000000000000081526004018080602001828103825260188152602001807f596f7527766520616c72656164792077697468647261776e000000000000000081525060200191505060405180910390fd5b60016002600085815260200190815260200160002060003373ffffffffffffffffffffffffffffffffffffffff1673ffffffffffffffffffffffffffffffffffffffff16815260200190815260200160002060006101000a81548160ff021916908315150217905550600080848152602001908152602001600020600083608001518152602001908152602001600020548260a001518115156113fb57fe5b049050600073ffffffffffffffffffffffffffffffffffffffff168260c0015173ffffffffffffffffffffffffffffffffffffffff161415611483573373ffffffffffffffffffffffffffffffffffffffff166108fc829081150290604051600060405180830381858888f1935050505015801561147d573d6000803e3d6000fd5b50611567565b8160c0015173ffffffffffffffffffffffffffffffffffffffff1663a9059cbb33836040518363ffffffff167c0100000000000000000000000000000000000000000000000000000000028152600401808373ffffffffffffffffffffffffffffffffffffffff1673ffffffffffffffffffffffffffffffffffffffff16815260200182815260200192505050602060405180830381600087803b15801561152a57600080fd5b505af115801561153e573d6000803e3d6000fd5b505050506040513d602081101561155457600080fd5b8101908080519060200190929190505050505b505050565b6115746127f8565b60058381548110151561158357fe5b90600052602060002090600802016101206040519081016040529081600082018054600181600116156101000203166002900480601f0160208091040260200160405190810160405280929190818152602001828054600181600116156101000203166002900480156116375780601f1061160c57610100808354040283529160200191611637565b820191906000526020600020905b81548152906001019060200180831161161a57829003601f168201915b5050505050815260200160018201548152602001600282018054600181600116156101000203166002900480601f0160208091040260200160405190810160405280929190818152602001828054600181600116156101000203166002900480156116e35780601f106116b8576101008083540402835291602001916116e3565b820191906000526020600020905b8154815290600101906020018083116116c657829003601f168201915b505050505081526020016003820160009054906101000a900473ffffffffffffffffffffffffffffffffffffffff1673ffffffffffffffffffffffffffffffffffffffff1673ffffffffffffffffffffffffffffffffffffffff16815260200160048201548152602001600582015481526020016006820160009054906101000a900473ffffffffffffffffffffffffffffffffffffffff1673ffffffffffffffffffffffffffffffffffffffff1673ffffffffffffffffffffffffffffffffffffffff1681526020016006820160149054906101000a900460ff161515151581526020016007820154815250509050600073ffffffffffffffffffffffffffffffffffffffff168160c0015173ffffffffffffffffffffffffffffffffffffffff16141561188c57806020015134141515611887576040517f08c379a000000000000000000000000000000000000000000000000000000000815260040180806020018281038252601d8152602001807f4d757374206d656574207468652062657420726571756972656d656e7400000081525060200191505060405180910390fd5b611abd565b80602001518160c0015173ffffffffffffffffffffffffffffffffffffffff1663dd62ed3e33306040518363ffffffff167c0100000000000000000000000000000000000000000000000000000000028152600401808373ffffffffffffffffffffffffffffffffffffffff1673ffffffffffffffffffffffffffffffffffffffff1681526020018273ffffffffffffffffffffffffffffffffffffffff1673ffffffffffffffffffffffffffffffffffffffff16815260200192505050602060405180830381600087803b15801561196457600080fd5b505af1158015611978573d6000803e3d6000fd5b505050506040513d602081101561198e57600080fd5b810190808051906020019092919050505050508060c0015173ffffffffffffffffffffffffffffffffffffffff166323b872dd333084602001516040518463ffffffff167c0100000000000000000000000000000000000000000000000000000000028152600401808473ffffffffffffffffffffffffffffffffffffffff1673ffffffffffffffffffffffffffffffffffffffff1681526020018373ffffffffffffffffffffffffffffffffffffffff1673ffffffffffffffffffffffffffffffffffffffff1681526020018281526020019350505050602060405180830381600087803b158015611a8057600080fd5b505af1158015611a94573d6000803e3d6000fd5b505050506040513d6020811015611aaa57600080fd5b8101908080519060200190929190505050505b600082111515611b5b576040517f08c379a00000000000000000000000000000000000000000000000000000000081526004018080602001828103825260338152602001807f596f75206d75737420757365203120626173656420696e646578657320666f7281526020017f2063686f6f73696e6720616e206f7074696f6e0000000000000000000000000081525060400191505060405180910390fd5b60008160800151141515611bd7576040517f08c379a00000000000000000000000000000000000000000000000000000000081526004018080602001828103825260198152602001807f43616e6e6f7420626574206f6e206120646f6e652067616d650000000000000081525060200191505060405180910390fd5b8060e00151151515611c51576040517f08c379a000000000000000000000000000000000000000000000000000000000815260040180806020018281038252601d8152602001807f43616e6e6f7420626574206f6e20616e20696e76616c69642067616d6500000081525060200191505060405180910390fd5b816001600085815260200190815260200160002060003373ffffffffffffffffffffffffffffffffffffffff1673ffffffffffffffffffffffffffffffffffffffff16815260200190815260200160002081905550600080848152602001908152602001600020600083815260200190815260200160002060008154809291906001019190505550600460008481526020019081526020016000203390806001815401808255809150509060018203906000526020600020016000909192909190916101000a81548173ffffffffffffffffffffffffffffffffffffffff021916908373ffffffffffffffffffffffffffffffffffffffff160217905550508060200151600584815481101515611d6457fe5b906000526020600020906008020160050160008282540192505081905550600583815481101515611d9157fe5b906000526020600020906008020160070160008154809291906001019190505550505050565b611dbf6127f8565b600583815481101515611dce57fe5b90600052602060002090600802016101206040519081016040529081600082018054600181600116156101000203166002900480601f016020809104026020016040519081016040528092919081815260200182805460018160011615610100020316600290048015611e825780601f10611e5757610100808354040283529160200191611e82565b820191906000526020600020905b815481529060010190602001808311611e6557829003601f168201915b5050505050815260200160018201548152602001600282018054600181600116156101000203166002900480601f016020809104026020016040519081016040528092919081815260200182805460018160011615610100020316600290048015611f2e5780601f10611f0357610100808354040283529160200191611f2e565b820191906000526020600020905b815481529060010190602001808311611f1157829003601f168201915b505050505081526020016003820160009054906101000a900473ffffffffffffffffffffffffffffffffffffffff1673ffffffffffffffffffffffffffffffffffffffff1673ffffffffffffffffffffffffffffffffffffffff16815260200160048201548152602001600582015481526020016006820160009054906101000a900473ffffffffffffffffffffffffffffffffffffffff1673ffffffffffffffffffffffffffffffffffffffff1673ffffffffffffffffffffffffffffffffffffffff1681526020016006820160149054906101000a900460ff1615151515815260200160078201548152505090503373ffffffffffffffffffffffffffffffffffffffff16816060015173ffffffffffffffffffffffffffffffffffffffff161415156120eb576040517f08c379a000000000000000000000000000000000000000000000000000000000815260040180806020018281038252602d8152602001807f596f7520646f6e27742068617665207065726d697373696f6e20746f2072657381526020017f6f6c76652074686973206265740000000000000000000000000000000000000081525060400191505060405180910390fd5b600082111515612163576040517f08c379a000000000000000000000000000000000000000000000000000000000815260040180806020018281038252601f8152602001807f557365203120626173656420696e646578657320666f72206f7574636f6d650081525060200191505060405180910390fd5b8060e001511515156121dd576040517f08c379a000000000000000000000000000000000000000000000000000000000815260040180806020018281038252601d8152602001807f43616e6e6f74207265736f6c766520616e20696e76616c69642062657400000081525060200191505060405180910390fd5b816005848154811015156121ed57fe5b906000526020600020906008020160040181905550505050565b6001602052816000526040600020602052806000526040600020600091509150505481565b6000602052816000526040600020602052806000526040600020600091509150505481565b6122596127f8565b60058281548110151561226857fe5b90600052602060002090600802016101206040519081016040529081600082018054600181600116156101000203166002900480601f01602080910402602001604051908101604052809291908181526020018280546001816001161561010002031660029004801561231c5780601f106122f15761010080835404028352916020019161231c565b820191906000526020600020905b8154815290600101906020018083116122ff57829003601f168201915b5050505050815260200160018201548152602001600282018054600181600116156101000203166002900480601f0160208091040260200160405190810160405280929190818152602001828054600181600116156101000203166002900480156123c85780601f1061239d576101008083540402835291602001916123c8565b820191906000526020600020905b8154815290600101906020018083116123ab57829003601f168201915b505050505081526020016003820160009054906101000a900473ffffffffffffffffffffffffffffffffffffffff1673ffffffffffffffffffffffffffffffffffffffff1673ffffffffffffffffffffffffffffffffffffffff16815260200160048201548152602001600582015481526020016006820160009054906101000a900473ffffffffffffffffffffffffffffffffffffffff1673ffffffffffffffffffffffffffffffffffffffff1673ffffffffffffffffffffffffffffffffffffffff1681526020016006820160149054906101000a900460ff1615151515815260200160078201548152505090503373ffffffffffffffffffffffffffffffffffffffff16816060015173ffffffffffffffffffffffffffffffffffffffff16141515612585576040517f08c379a00000000000000000000000000000000000000000000000000000000081526004018080602001828103825260308152602001807f596f7520646f6e27742068617665207065726d697373696f6e20746f20696e7681526020017f616c69646174652074686973206265740000000000000000000000000000000081525060400191505060405180910390fd5b60008160800151141515612601576040517f08c379a00000000000000000000000000000000000000000000000000000000081526004018080602001828103825260208152602001807f43616e6e6f7420696e76616c69646174652061207265736f6c7665642062657481525060200191505060405180910390fd5b600160058381548110151561261257fe5b906000526020600020906008020160060160146101000a81548160ff0219169083151502179055505050565b6005610120604051908101604052808681526020018581526020018481526020013373ffffffffffffffffffffffffffffffffffffffff16815260200160008152602001600081526020018373ffffffffffffffffffffffffffffffffffffffff16815260200160001515815260200160008152509080600181540180825580915050906001820390600052602060002090600802016000909192909190915060008201518160000190805190602001906126fa929190612873565b50602082015181600101556040820151816002019080519060200190612721929190612873565b5060608201518160030160006101000a81548173ffffffffffffffffffffffffffffffffffffffff021916908373ffffffffffffffffffffffffffffffffffffffff1602179055506080820151816004015560a0820151816005015560c08201518160060160006101000a81548173ffffffffffffffffffffffffffffffffffffffff021916908373ffffffffffffffffffffffffffffffffffffffff16021790555060e08201518160060160146101000a81548160ff021916908315150217905550610100820151816007015550505050505050565b61012060405190810160405280606081526020016000815260200160608152602001600073ffffffffffffffffffffffffffffffffffffffff1681526020016000815260200160008152602001600073ffffffffffffffffffffffffffffffffffffffff168152602001600015158152602001600081525090565b828054600181600116156101000203166002900490600052602060002090601f016020900481019282601f106128b457805160ff19168380011785556128e2565b828001600101855582156128e2579182015b828111156128e15782518255916020019190600101906128c6565b5b5090506128ef91906128f3565b5090565b61291591905b808211156129115760008160009055506001016128f9565b5090565b905600a165627a7a72305820458fff88d2ab6781d93125ab115d11f01e1b806ba7eb4ae543fe7cc1f9bb4b310029",
  "source": "pragma solidity ^0.4.24;\nimport \"./IERC20.sol\";\n\ncontract BitBets {\n  mapping(uint => mapping(uint => uint)) public choiceBets;\n  mapping(uint => mapping(address => uint)) public userBets;\n  mapping(uint => mapping(address => bool)) public userWithdrawn;\n  mapping(uint => mapping(address => bool)) public userRecovered;\n  mapping(uint => address[]) takers;\n  struct Bet {\n    string terms;\n    uint amount;\n    string options;\n    address oracle;\n    uint outcome;\n    uint totalPool;\n    address paymentToken;\n    bool invalid;\n    uint betsPlaced;\n  }\n\n  Bet[] public bets;\n\n  function createBet(string memory terms, uint amount, string memory options, address paymentToken) public {\n    bets.push(Bet({\n      terms: terms,\n      amount: amount,\n      options: options,\n      oracle: msg.sender,\n      outcome: 0,\n      totalPool: 0,\n      paymentToken: paymentToken,\n      invalid: false,\n      betsPlaced: 0\n    }));\n  }\n\n  function placeBet(uint betIndex, uint option) public payable {\n    Bet memory currentBet = bets[betIndex];\n    if(currentBet.paymentToken == address(0)) {\n      require(msg.value == currentBet.amount, \"Must meet the bet requirement\");\n    } else {\n      IERC20(currentBet.paymentToken).allowance(msg.sender, address(this)) >= currentBet.amount;\n      IERC20(currentBet.paymentToken).transferFrom(msg.sender, address(this), currentBet.amount);\n    }\n    require(option > 0, \"You must use 1 based indexes for choosing an option\");\n    require(currentBet.outcome == 0, \"Cannot bet on a done game\");\n    require(!(currentBet.invalid), \"Cannot bet on an invalid game\");\n    userBets[betIndex][msg.sender] = option;\n    choiceBets[betIndex][option]++;\n    takers[betIndex].push(msg.sender);\n    bets[betIndex].totalPool += currentBet.amount;\n    bets[betIndex].betsPlaced++;\n  }\n\n  function resolveBet(uint betIndex, uint outcome) public {\n    Bet memory currentBet = bets[betIndex];\n    require(currentBet.oracle == msg.sender, \"You don't have permission to resolve this bet\");\n    require(outcome > 0, \"Use 1 based indexes for outcome\");\n    require(!(currentBet.invalid), \"Cannot resolve an invalid bet\");\n    bets[betIndex].outcome = outcome;\n  }\n\n  function invalidateBet(uint betIndex) public {\n    Bet memory currentBet = bets[betIndex];\n    require(currentBet.oracle == msg.sender, \"You don't have permission to invalidate this bet\");\n    require(currentBet.outcome == 0, \"Cannot invalidate a resolved bet\");\n    bets[betIndex].invalid = true;\n  }\n\n  function withdraw(uint betIndex) public {\n    Bet memory currentBet = bets[betIndex];\n    require(currentBet.outcome > 0, \"Bet is not resolved\");\n    require(!(currentBet.invalid), \"Cannot withdraw from an invalid bet\");\n    require(userBets[betIndex][msg.sender] == currentBet.outcome, \"You didn't select the correct answer\");\n    require(userWithdrawn[betIndex][msg.sender] == false, \"You've already withdrawn\");\n    userWithdrawn[betIndex][msg.sender] = true;\n    uint reward = currentBet.totalPool / choiceBets[betIndex][currentBet.outcome];\n    if(currentBet.paymentToken == address(0x0)) {\n      address(msg.sender).transfer(reward);\n    } else {\n      IERC20(currentBet.paymentToken).transfer(msg.sender, reward);\n    }\n  }\n\n  function recover(uint betIndex) public {\n    Bet memory currentBet = bets[betIndex];\n    require(currentBet.invalid, \"Bet is not invalid\");\n    require(currentBet.outcome == 0, \"Cannot recover from a resolved bet\");\n    require(userRecovered[betIndex][msg.sender] == false, \"You've already recovered\");\n    userRecovered[betIndex][msg.sender] = true;\n    uint reward = currentBet.totalPool / currentBet.betsPlaced;\n    if(currentBet.paymentToken == address(0x0)) {\n      address(msg.sender).transfer(reward);\n    } else {\n      IERC20(currentBet.paymentToken).transfer(msg.sender, reward);\n    }\n  }\n}\n",
  "sourcePath": "C:/Users/jack/Documents/bitbets/src/web3/contracts/BitBets.sol",
  "compiler": {
    "name": "solc",
    "version": "0.4.26+commit.4563c3fc.Emscripten.clang"
  },
  "schemaVersion": "3.0.12",
  "updatedAt": "2019-08-19T02:32:35.855Z",
  "devdoc": {
    "methods": {}
  },
  "userdoc": {
    "methods": {}
  }
}